{
    "_format": "hh-sol-artifact-1",
    "contractName": "Deffle",
    "sourceName": "contracts/Deffle.sol",
    "abi": [
        {
            "inputs": [
                {
                    "internalType": "address",
                    "name": "vrfCoordinatorV2",
                    "type": "address"
                },
                {
                    "internalType": "uint256",
                    "name": "_creationFee",
                    "type": "uint256"
                },
                {
                    "internalType": "bytes32",
                    "name": "gasLane",
                    "type": "bytes32"
                },
                {
                    "internalType": "uint64",
                    "name": "subscriptionId",
                    "type": "uint64"
                },
                {
                    "internalType": "uint32",
                    "name": "callbackGasLimit",
                    "type": "uint32"
                },
                {
                    "internalType": "uint256",
                    "name": "_feePercent",
                    "type": "uint256"
                }
            ],
            "stateMutability": "nonpayable",
            "type": "constructor"
        },
        {
            "inputs": [],
            "name": "Error__CreateRaffle",
            "type": "error"
        },
        {
            "inputs": [],
            "name": "Error__EnterRaffle",
            "type": "error"
        },
        {
            "inputs": [],
            "name": "Error__NotOwner",
            "type": "error"
        },
        {
            "inputs": [],
            "name": "Error__RafflePaymentFailed",
            "type": "error"
        },
        {
            "inputs": [],
            "name": "Error__UpkeepNotTrue",
            "type": "error"
        },
        {
            "inputs": [],
            "name": "Error__ZeroAmount",
            "type": "error"
        },
        {
            "inputs": [
                {
                    "internalType": "address",
                    "name": "have",
                    "type": "address"
                },
                {
                    "internalType": "address",
                    "name": "want",
                    "type": "address"
                }
            ],
            "name": "OnlyCoordinatorCanFulfill",
            "type": "error"
        },
        {
            "anonymous": false,
            "inputs": [
                {
                    "indexed": true,
                    "internalType": "uint256",
                    "name": "_deffleEarnings",
                    "type": "uint256"
                }
            ],
            "name": "Deffle__EarningsWithdrawn",
            "type": "event"
        },
        {
            "anonymous": false,
            "inputs": [
                {
                    "indexed": false,
                    "internalType": "uint256",
                    "name": "raffleId",
                    "type": "uint256"
                },
                {
                    "indexed": true,
                    "internalType": "address",
                    "name": "participant",
                    "type": "address"
                },
                {
                    "indexed": true,
                    "internalType": "uint8",
                    "name": "totalParticipants",
                    "type": "uint8"
                }
            ],
            "name": "Deffle__EnterRaffle",
            "type": "event"
        },
        {
            "anonymous": false,
            "inputs": [
                {
                    "indexed": false,
                    "internalType": "uint256",
                    "name": "raffleId",
                    "type": "uint256"
                },
                {
                    "indexed": true,
                    "internalType": "address",
                    "name": "raffleOwner",
                    "type": "address"
                }
            ],
            "name": "Deffle__RaffleCreated",
            "type": "event"
        },
        {
            "anonymous": false,
            "inputs": [
                {
                    "indexed": false,
                    "internalType": "uint256",
                    "name": "raffleId",
                    "type": "uint256"
                },
                {
                    "indexed": true,
                    "internalType": "address",
                    "name": "raffleWinner",
                    "type": "address"
                },
                {
                    "indexed": true,
                    "internalType": "uint256",
                    "name": "raffleEarnings",
                    "type": "uint256"
                }
            ],
            "name": "Deffle__WinnerPicked",
            "type": "event"
        },
        {
            "anonymous": false,
            "inputs": [
                {
                    "indexed": true,
                    "internalType": "uint256",
                    "name": "requestId",
                    "type": "uint256"
                }
            ],
            "name": "RequestedRaffleWinner",
            "type": "event"
        },
        {
            "inputs": [],
            "name": "NUM_WORDS",
            "outputs": [
                {
                    "internalType": "uint32",
                    "name": "",
                    "type": "uint32"
                }
            ],
            "stateMutability": "view",
            "type": "function"
        },
        {
            "inputs": [],
            "name": "REQUEST_CONFIRMATIONS",
            "outputs": [
                {
                    "internalType": "uint16",
                    "name": "",
                    "type": "uint16"
                }
            ],
            "stateMutability": "view",
            "type": "function"
        },
        {
            "inputs": [
                {
                    "internalType": "bytes",
                    "name": "",
                    "type": "bytes"
                }
            ],
            "name": "checkUpkeep",
            "outputs": [
                {
                    "internalType": "bool",
                    "name": "upkeepNeeded",
                    "type": "bool"
                },
                {
                    "internalType": "bytes",
                    "name": "performData",
                    "type": "bytes"
                }
            ],
            "stateMutability": "view",
            "type": "function"
        },
        {
            "inputs": [
                {
                    "internalType": "bytes32",
                    "name": "_raffleData",
                    "type": "bytes32"
                },
                {
                    "internalType": "uint256",
                    "name": "_entranceFee",
                    "type": "uint256"
                },
                {
                    "internalType": "uint256",
                    "name": "_deadline",
                    "type": "uint256"
                },
                {
                    "internalType": "uint8",
                    "name": "_maxTickets",
                    "type": "uint8"
                },
                {
                    "internalType": "bytes",
                    "name": "_passCode",
                    "type": "bytes"
                }
            ],
            "name": "createRaffle",
            "outputs": [],
            "stateMutability": "payable",
            "type": "function"
        },
        {
            "inputs": [],
            "name": "creationFee",
            "outputs": [
                {
                    "internalType": "uint256",
                    "name": "",
                    "type": "uint256"
                }
            ],
            "stateMutability": "view",
            "type": "function"
        },
        {
            "inputs": [],
            "name": "deffleEarnings",
            "outputs": [
                {
                    "internalType": "uint256",
                    "name": "",
                    "type": "uint256"
                }
            ],
            "stateMutability": "view",
            "type": "function"
        },
        {
            "inputs": [
                {
                    "internalType": "uint256",
                    "name": "raffleId",
                    "type": "uint256"
                },
                {
                    "internalType": "bytes",
                    "name": "_passCode",
                    "type": "bytes"
                }
            ],
            "name": "enterRaffle",
            "outputs": [],
            "stateMutability": "payable",
            "type": "function"
        },
        {
            "inputs": [],
            "name": "feePercent",
            "outputs": [
                {
                    "internalType": "uint256",
                    "name": "",
                    "type": "uint256"
                }
            ],
            "stateMutability": "view",
            "type": "function"
        },
        {
            "inputs": [
                {
                    "internalType": "uint256",
                    "name": "raffleId",
                    "type": "uint256"
                }
            ],
            "name": "getDeadline",
            "outputs": [
                {
                    "internalType": "uint256",
                    "name": "",
                    "type": "uint256"
                }
            ],
            "stateMutability": "view",
            "type": "function"
        },
        {
            "inputs": [
                {
                    "internalType": "uint256",
                    "name": "raffleId",
                    "type": "uint256"
                }
            ],
            "name": "getEntranceFee",
            "outputs": [
                {
                    "internalType": "uint256",
                    "name": "",
                    "type": "uint256"
                }
            ],
            "stateMutability": "view",
            "type": "function"
        },
        {
            "inputs": [],
            "name": "getIdList",
            "outputs": [
                {
                    "internalType": "uint8[]",
                    "name": "",
                    "type": "uint8[]"
                }
            ],
            "stateMutability": "view",
            "type": "function"
        },
        {
            "inputs": [
                {
                    "internalType": "uint256",
                    "name": "raffleId",
                    "type": "uint256"
                }
            ],
            "name": "getMaxPlayers",
            "outputs": [
                {
                    "internalType": "uint8",
                    "name": "",
                    "type": "uint8"
                }
            ],
            "stateMutability": "view",
            "type": "function"
        },
        {
            "inputs": [],
            "name": "getNumWords",
            "outputs": [
                {
                    "internalType": "uint256",
                    "name": "",
                    "type": "uint256"
                }
            ],
            "stateMutability": "pure",
            "type": "function"
        },
        {
            "inputs": [
                {
                    "internalType": "uint256",
                    "name": "raffleId",
                    "type": "uint256"
                }
            ],
            "name": "getNumberOfPlayers",
            "outputs": [
                {
                    "internalType": "uint8",
                    "name": "",
                    "type": "uint8"
                }
            ],
            "stateMutability": "view",
            "type": "function"
        },
        {
            "inputs": [
                {
                    "internalType": "uint256",
                    "name": "_balance",
                    "type": "uint256"
                },
                {
                    "internalType": "uint256",
                    "name": "_feePercent",
                    "type": "uint256"
                }
            ],
            "name": "getPaymentAmount",
            "outputs": [
                {
                    "internalType": "uint256",
                    "name": "pay",
                    "type": "uint256"
                },
                {
                    "internalType": "uint256",
                    "name": "charge",
                    "type": "uint256"
                }
            ],
            "stateMutability": "pure",
            "type": "function"
        },
        {
            "inputs": [
                {
                    "internalType": "uint256",
                    "name": "raffleId",
                    "type": "uint256"
                }
            ],
            "name": "getPlayers",
            "outputs": [
                {
                    "internalType": "address payable[]",
                    "name": "",
                    "type": "address[]"
                }
            ],
            "stateMutability": "view",
            "type": "function"
        },
        {
            "inputs": [
                {
                    "internalType": "uint256",
                    "name": "raffleId",
                    "type": "uint256"
                }
            ],
            "name": "getRaffleBalance",
            "outputs": [
                {
                    "internalType": "uint256",
                    "name": "",
                    "type": "uint256"
                }
            ],
            "stateMutability": "view",
            "type": "function"
        },
        {
            "inputs": [
                {
                    "internalType": "uint256",
                    "name": "raffleId",
                    "type": "uint256"
                }
            ],
            "name": "getRaffleOwner",
            "outputs": [
                {
                    "internalType": "address",
                    "name": "",
                    "type": "address"
                }
            ],
            "stateMutability": "view",
            "type": "function"
        },
        {
            "inputs": [
                {
                    "internalType": "uint256",
                    "name": "raffleId",
                    "type": "uint256"
                }
            ],
            "name": "getRaffleState",
            "outputs": [
                {
                    "internalType": "enum Deffle.RaffleState",
                    "name": "",
                    "type": "uint8"
                }
            ],
            "stateMutability": "view",
            "type": "function"
        },
        {
            "inputs": [
                {
                    "internalType": "uint256",
                    "name": "raffleId",
                    "type": "uint256"
                }
            ],
            "name": "getRaffleWinner",
            "outputs": [
                {
                    "internalType": "address",
                    "name": "",
                    "type": "address"
                }
            ],
            "stateMutability": "view",
            "type": "function"
        },
        {
            "inputs": [],
            "name": "getRequestConfirmations",
            "outputs": [
                {
                    "internalType": "uint256",
                    "name": "",
                    "type": "uint256"
                }
            ],
            "stateMutability": "pure",
            "type": "function"
        },
        {
            "inputs": [],
            "name": "i_callbackGasLimit",
            "outputs": [
                {
                    "internalType": "uint32",
                    "name": "",
                    "type": "uint32"
                }
            ],
            "stateMutability": "view",
            "type": "function"
        },
        {
            "inputs": [],
            "name": "i_gasLane",
            "outputs": [
                {
                    "internalType": "bytes32",
                    "name": "",
                    "type": "bytes32"
                }
            ],
            "stateMutability": "view",
            "type": "function"
        },
        {
            "inputs": [],
            "name": "i_subscriptionId",
            "outputs": [
                {
                    "internalType": "uint64",
                    "name": "",
                    "type": "uint64"
                }
            ],
            "stateMutability": "view",
            "type": "function"
        },
        {
            "inputs": [],
            "name": "i_vrfCoordinator",
            "outputs": [
                {
                    "internalType": "contract VRFCoordinatorV2Interface",
                    "name": "",
                    "type": "address"
                }
            ],
            "stateMutability": "view",
            "type": "function"
        },
        {
            "inputs": [
                {
                    "internalType": "uint256",
                    "name": "",
                    "type": "uint256"
                }
            ],
            "name": "idToRaffle",
            "outputs": [
                {
                    "internalType": "bytes32",
                    "name": "raffleData",
                    "type": "bytes32"
                },
                {
                    "internalType": "uint256",
                    "name": "entranceFee",
                    "type": "uint256"
                },
                {
                    "internalType": "uint256",
                    "name": "deadline",
                    "type": "uint256"
                },
                {
                    "internalType": "bytes",
                    "name": "passCode",
                    "type": "bytes"
                },
                {
                    "internalType": "uint8",
                    "name": "maxTickets",
                    "type": "uint8"
                },
                {
                    "internalType": "address payable",
                    "name": "owner",
                    "type": "address"
                },
                {
                    "internalType": "enum Deffle.RaffleState",
                    "name": "raffleState",
                    "type": "uint8"
                },
                {
                    "internalType": "uint256",
                    "name": "raffleBalance",
                    "type": "uint256"
                },
                {
                    "internalType": "address payable",
                    "name": "raffleWinner",
                    "type": "address"
                }
            ],
            "stateMutability": "view",
            "type": "function"
        },
        {
            "inputs": [],
            "name": "owner",
            "outputs": [
                {
                    "internalType": "address payable",
                    "name": "",
                    "type": "address"
                }
            ],
            "stateMutability": "view",
            "type": "function"
        },
        {
            "inputs": [
                {
                    "internalType": "bytes",
                    "name": "",
                    "type": "bytes"
                }
            ],
            "name": "performUpkeep",
            "outputs": [],
            "stateMutability": "nonpayable",
            "type": "function"
        },
        {
            "inputs": [
                {
                    "internalType": "uint256",
                    "name": "requestId",
                    "type": "uint256"
                },
                {
                    "internalType": "uint256[]",
                    "name": "randomWords",
                    "type": "uint256[]"
                }
            ],
            "name": "rawFulfillRandomWords",
            "outputs": [],
            "stateMutability": "nonpayable",
            "type": "function"
        },
        {
            "inputs": [],
            "name": "withdrawDeffleEarnings",
            "outputs": [],
            "stateMutability": "nonpayable",
            "type": "function"
        }
    ],
    "bytecode": "0x6101006040523480156200001257600080fd5b506040516200306b3803806200306b8339818101604052810190620000389190620001c9565b858073ffffffffffffffffffffffffffffffffffffffff1660808173ffffffffffffffffffffffffffffffffffffffff1660601b815250505033600260016101000a81548173ffffffffffffffffffffffffffffffffffffffff021916908373ffffffffffffffffffffffffffffffffffffffff1602179055508460a081815250508060c081815250508573ffffffffffffffffffffffffffffffffffffffff1660e08173ffffffffffffffffffffffffffffffffffffffff1660601b815250508360048190555082600560006101000a81548167ffffffffffffffff021916908367ffffffffffffffff16021790555081600560086101000a81548163ffffffff021916908363ffffffff16021790555050505050505062000358565b6000815190506200016781620002d6565b92915050565b6000815190506200017e81620002f0565b92915050565b60008151905062000195816200030a565b92915050565b600081519050620001ac8162000324565b92915050565b600081519050620001c3816200033e565b92915050565b60008060008060008060c08789031215620001e957620001e8620002d1565b5b6000620001f989828a0162000156565b96505060206200020c89828a0162000184565b95505060406200021f89828a016200016d565b94505060606200023289828a01620001b2565b93505060806200024589828a016200019b565b92505060a06200025889828a0162000184565b9150509295509295509295565b6000620002728262000283565b9050919050565b6000819050919050565b600073ffffffffffffffffffffffffffffffffffffffff82169050919050565b6000819050919050565b600063ffffffff82169050919050565b600067ffffffffffffffff82169050919050565b600080fd5b620002e18162000265565b8114620002ed57600080fd5b50565b620002fb8162000279565b81146200030757600080fd5b50565b6200031581620002a3565b81146200032157600080fd5b50565b6200032f81620002ad565b81146200033b57600080fd5b50565b6200034981620002bd565b81146200035557600080fd5b50565b60805160601c60a05160c05160e05160601c612cb7620003b460003960008181610ab3015261146501526000818161135901526119a40152600081816114d101526114f50152600081816107e8015261083c0152612cb76000f3fe6080604052600436106101cd5760003560e01c806367f082b0116100f75780638e879c8a11610095578063d35824b611610064578063d35824b6146106eb578063d757d02714610716578063dce0b4e414610741578063efff46b51461076c576101cd565b80638e879c8a1461062d578063ac0fc11c14610658578063aebc455014610683578063c59bee7b146106ae576101cd565b80637fd6f15c116100d15780637fd6f15c1461055d57806382862275146105885780638731c630146105c55780638da5cb5b14610602576101cd565b806367f082b0146104c95780636e04ff0d146104f457806372cf6e3414610532576101cd565b80634968493e1161016f5780635f1b0fd81161013e5780635f1b0fd8146103e657806362436d9d1461041157806362617c9a1461044e57806366e008f81461048b576101cd565b80634968493e1461034b578063511afa031461036757806353a2c19a1461037e578063566777cc146103a9576101cd565b806326de4839116101ab57806326de4839146102755780634585e33b146102ba578063460e2049146102e3578063470cdf9714610320576101cd565b80630afd00b1146101d257806312fc6d921461020f5780631fe543e31461024c575b600080fd5b3480156101de57600080fd5b506101f960048036038101906101f49190611f17565b610788565b604051610206919061235b565b60405180910390f35b34801561021b57600080fd5b5061023660048036038101906102319190611f17565b6107c7565b6040516102439190612581565b60405180910390f35b34801561025857600080fd5b50610273600480360381019061026e9190611f71565b6107e6565b005b34801561028157600080fd5b5061029c60048036038101906102979190611f17565b6108a6565b6040516102b199989796959493929190612449565b60405180910390f35b3480156102c657600080fd5b506102e160048036038101906102dc9190611e81565b6109d6565b005b3480156102ef57600080fd5b5061030a60048036038101906103059190611f17565b610bc6565b60405161031791906123ba565b60405180910390f35b34801561032c57600080fd5b50610335610c6f565b60405161034291906125e0565b60405180910390f35b61036560048036038101906103609190611fcd565b610c89565b005b34801561037357600080fd5b5061037c610f56565b005b34801561038a57600080fd5b5061039361111f565b6040516103a09190612581565b60405180910390f35b3480156103b557600080fd5b506103d060048036038101906103cb9190611f17565b61112e565b6040516103dd919061254b565b60405180910390f35b3480156103f257600080fd5b506103fb61115a565b6040516104089190612581565b60405180910390f35b34801561041d57600080fd5b5061043860048036038101906104339190611f17565b611167565b6040516104459190612616565b60405180910390f35b34801561045a57600080fd5b5061047560048036038101906104709190611f17565b611189565b604051610482919061235b565b60405180910390f35b34801561049757600080fd5b506104b260048036038101906104ad9190612029565b6111c8565b6040516104c092919061259c565b60405180910390f35b3480156104d557600080fd5b506104de611217565b6040516104eb9190612566565b60405180910390f35b34801561050057600080fd5b5061051b60048036038101906105169190611ece565b61121c565b6040516105299291906123fe565b60405180910390f35b34801561053e57600080fd5b50610547611352565b60405161055491906125c5565b60405180910390f35b34801561056957600080fd5b50610572611357565b60405161057f9190612581565b60405180910390f35b34801561059457600080fd5b506105af60048036038101906105aa9190611f17565b61137b565b6040516105bc9190612581565b60405180910390f35b3480156105d157600080fd5b506105ec60048036038101906105e79190611f17565b61139a565b6040516105f99190612581565b60405180910390f35b34801561060e57600080fd5b506106176113b9565b6040516106249190612376565b60405180910390f35b34801561063957600080fd5b506106426113df565b60405161064f919061242e565b60405180910390f35b34801561066457600080fd5b5061066d6113e5565b60405161067a91906123dc565b60405180910390f35b34801561068f57600080fd5b50610698611463565b6040516106a59190612530565b60405180910390f35b3480156106ba57600080fd5b506106d560048036038101906106d09190611f17565b611487565b6040516106e29190612616565b60405180910390f35b3480156106f757600080fd5b506107006114b3565b60405161070d9190612581565b60405180910390f35b34801561072257600080fd5b5061072b6114b9565b60405161073891906125c5565b60405180910390f35b34801561074d57600080fd5b506107566114cf565b6040516107639190612581565b60405180910390f35b61078660048036038101906107819190611dea565b6114f3565b005b600080600083815260200190815260200160002060060160009054906101000a900473ffffffffffffffffffffffffffffffffffffffff169050919050565b6000806000838152602001908152602001600020600701549050919050565b7f000000000000000000000000000000000000000000000000000000000000000073ffffffffffffffffffffffffffffffffffffffff163373ffffffffffffffffffffffffffffffffffffffff161461089857337f00000000000000000000000000000000000000000000000000000000000000006040517f1cf993f400000000000000000000000000000000000000000000000000000000815260040161088f929190612391565b60405180910390fd5b6108a2828261182f565b5050565b60006020528060005260406000206000915090508060000154908060010154908060020154908060030180546108db906129ff565b80601f0160208091040260200160405190810160405280929190818152602001828054610907906129ff565b80156109545780601f1061092957610100808354040283529160200191610954565b820191906000526020600020905b81548152906001019060200180831161093757829003601f168201915b5050505050908060040160009054906101000a900460ff16908060060160009054906101000a900473ffffffffffffffffffffffffffffffffffffffff16908060060160149054906101000a900460ff16908060070154908060080160009054906101000a900473ffffffffffffffffffffffffffffffffffffffff16905089565b600080610a176040518060400160405280600281526020017f307800000000000000000000000000000000000000000000000000000000000081525061121c565b9150915081610a52576040517fa9309a4900000000000000000000000000000000000000000000000000000000815260040160405180910390fd5b80806020019051810190610a669190612069565b60ff166006819055506001600080600654815260200190815260200160002060060160146101000a81548160ff02191690836002811115610aaa57610aa9612b3a565b5b021790555060007f000000000000000000000000000000000000000000000000000000000000000073ffffffffffffffffffffffffffffffffffffffff16635d3b1d30600454600560009054906101000a900467ffffffffffffffff166003600560089054906101000a900463ffffffff1660016040518663ffffffff1660e01b8152600401610b3e9594939291906124dd565b602060405180830381600087803b158015610b5857600080fd5b505af1158015610b6c573d6000803e3d6000fd5b505050506040513d601f19601f82011682018060405250810190610b909190611f44565b9050807fcd6e45c8998311cab7e9d4385596cac867e20a0587194b954fa3a731c93ce78b60405160405180910390a25050505050565b60606000806000848152602001908152602001600020600501905080805480602002602001604051908101604052809291908181526020018280548015610c6257602002820191906000526020600020905b8160009054906101000a900473ffffffffffffffffffffffffffffffffffffffff1673ffffffffffffffffffffffffffffffffffffffff1681526020019060010190808311610c18575b5050505050915050919050565b600560009054906101000a900467ffffffffffffffff1681565b6000821480610cdf575060006002811115610ca757610ca6612b3a565b5b60008084815260200190815260200160002060060160149054906101000a900460ff166002811115610cdc57610cdb612b3a565b5b14155b80610cfe57506000808381526020019081526020016000206001015434105b80610d1d57504260008084815260200190815260200160002060020154105b80610d64575060008083815260200190815260200160002060040160009054906101000a900460ff1660ff1660008084815260200190815260200160002060050180549050145b80610d9f57508080519060200120600080848152602001908152602001600020600301604051610d94919061232f565b604051809103902014155b80610dae575081600180549050105b80610e19575060008083815260200190815260200160002060060160009054906101000a900473ffffffffffffffffffffffffffffffffffffffff1673ffffffffffffffffffffffffffffffffffffffff163373ffffffffffffffffffffffffffffffffffffffff16145b15610e50576040517f3e6e95d000000000000000000000000000000000000000000000000000000000815260040160405180910390fd5b600080838152602001908152602001600020600501339080600181540180825580915050600190039060005260206000200160009091909190916101000a81548173ffffffffffffffffffffffffffffffffffffffff021916908373ffffffffffffffffffffffffffffffffffffffff160217905550346000808481526020019081526020016000206007016000828254610eeb9190612761565b925050819055506000610efd83611167565b90508060ff163373ffffffffffffffffffffffffffffffffffffffff167fe09fe6236605a2cdc9c5b25d0f97d76422d2fc5efd65d775bae194cf09da786b85604051610f499190612581565b60405180910390a3505050565b600260019054906101000a900473ffffffffffffffffffffffffffffffffffffffff1673ffffffffffffffffffffffffffffffffffffffff163373ffffffffffffffffffffffffffffffffffffffff1614610fdd576040517f641cb3f000000000000000000000000000000000000000000000000000000000815260040160405180910390fd5b6000600354141561101a576040517fa8e02ad800000000000000000000000000000000000000000000000000000000815260040160405180910390fd5b6000600354905060006003819055506000600260019054906101000a900473ffffffffffffffffffffffffffffffffffffffff1673ffffffffffffffffffffffffffffffffffffffff168260405161107190612346565b60006040518083038185875af1925050503d80600081146110ae576040519150601f19603f3d011682016040523d82523d6000602084013e6110b3565b606091505b50509050806110ee576040517f0c9c412e00000000000000000000000000000000000000000000000000000000815260040160405180910390fd5b817f4487cfce56e8251067bc55b2ca6146bec03c2cc60df1b486696bd04a79df1d6b60405160405180910390a25050565b6000600163ffffffff16905090565b600080600083815260200190815260200160002060060160149054906101000a900460ff169050919050565b6000600361ffff16905090565b6000806000838152602001908152602001600020600501805490509050919050565b600080600083815260200190815260200160002060080160009054906101000a900473ffffffffffffffffffffffffffffffffffffffff169050919050565b600080600060648460646111dc9190612761565b866111e7919061281f565b6111f191906127ee565b905084816111ff9190612879565b9150818561120d9190612879565b9250509250929050565b600381565b6000606060009150600080600090505b6112346113e5565b5181108015611241575083155b1561132657600061125d6001836112589190612761565b61112e565b600281111561126f5761126e612b3a565b5b6000600281111561128357611282612b3a565b5b149050600061129d6001846112989190612761565b61137b565b421190506000806112b96001866112b49190612761565b6107c7565b1190506000806112d46001876112cf9190612761565b611167565b60ff161190508380156112e45750825b80156112ed5750815b80156112f65750805b1561130f576001975060018561130c9190612761565b95505b50505050808061131e90612a62565b91505061122c565b5082816040516020016113399190612616565b6040516020818303038152906040529250925050915091565b600181565b7f000000000000000000000000000000000000000000000000000000000000000081565b6000806000838152602001908152602001600020600201549050919050565b6000806000838152602001908152602001600020600101549050919050565b600260019054906101000a900473ffffffffffffffffffffffffffffffffffffffff1681565b60045481565b6060600180548060200260200160405190810160405280929190818152602001828054801561145957602002820191906000526020600020906000905b82829054906101000a900460ff1660ff16815260200190600101906020826000010492830192600103820291508084116114225790505b5050505050905090565b7f000000000000000000000000000000000000000000000000000000000000000081565b600080600083815260200190815260200160002060040160009054906101000a900460ff169050919050565b60035481565b600560089054906101000a900463ffffffff1681565b7f000000000000000000000000000000000000000000000000000000000000000081565b7f000000000000000000000000000000000000000000000000000000000000000034108061152057504283105b8061152f575060018260ff1611155b8061153b575060008411155b15611572576040517fc34b620a00000000000000000000000000000000000000000000000000000000815260040160405180910390fd5b34600360008282546115849190612761565b925050819055506001600260009054906101000a900460ff166115a791906127b7565b600260006101000a81548160ff021916908360ff16021790555084600080600260009054906101000a900460ff1660ff1681526020019081526020016000206000018190555083600080600260009054906101000a900460ff1660ff1681526020019081526020016000206001018190555082600080600260009054906101000a900460ff1660ff1681526020019081526020016000206002018190555081600080600260009054906101000a900460ff1660ff16815260200190815260200160002060040160006101000a81548160ff021916908360ff16021790555033600080600260009054906101000a900460ff1660ff16815260200190815260200160002060060160006101000a81548173ffffffffffffffffffffffffffffffffffffffff021916908373ffffffffffffffffffffffffffffffffffffffff1602179055506000806000600260009054906101000a900460ff1660ff16815260200190815260200160002060060160146101000a81548160ff0219169083600281111561173657611735612b3a565b5b021790555080600080600260009054906101000a900460ff1660ff1681526020019081526020016000206003019080519060200190611776929190611b7a565b506001600260009054906101000a900460ff1690806001815401808255809150506001900390600052602060002090602091828204019190069091909190916101000a81548160ff021916908360ff1602179055503373ffffffffffffffffffffffffffffffffffffffff167ffcbf5384972a77ead778b02df6358769238ea87ef0826418733b2ed0567dac52600260009054906101000a900460ff1660405161182091906125fb565b60405180910390a25050505050565b6000806000600654815260200190815260200160002060050180549050826000815181106118605761185f612b98565b5b60200260200101516118729190612aab565b905060008060006006548152602001908152602001600020600501828154811061189f5761189e612b98565b5b9060005260206000200160009054906101000a900473ffffffffffffffffffffffffffffffffffffffff1690506000806000600654815260200190815260200160002060070154905081600080600654815260200190815260200160002060080160006101000a81548173ffffffffffffffffffffffffffffffffffffffff021916908373ffffffffffffffffffffffffffffffffffffffff1602179055506002600080600654815260200190815260200160002060060160146101000a81548160ff0219169083600281111561197957611978612b3a565b5b021790555060008060006006548152602001908152602001600020600701819055506000806119c8837f00000000000000000000000000000000000000000000000000000000000000006111c8565b9150915060008473ffffffffffffffffffffffffffffffffffffffff16836040516119f290612346565b60006040518083038185875af1925050503d8060008114611a2f576040519150601f19603f3d011682016040523d82523d6000602084013e611a34565b606091505b505090506000806000600654815260200190815260200160002060060160009054906101000a900473ffffffffffffffffffffffffffffffffffffffff1673ffffffffffffffffffffffffffffffffffffffff1683604051611a9590612346565b60006040518083038185875af1925050503d8060008114611ad2576040519150601f19603f3d011682016040523d82523d6000602084013e611ad7565b606091505b5050905081158015611ae7575080155b15611b1e576040517f0c9c412e00000000000000000000000000000000000000000000000000000000815260040160405180910390fd5b848673ffffffffffffffffffffffffffffffffffffffff167f5ef39517b40bd4e7a07d3bf92a7770d540c5ec5b04729aaca7a3055690658457600654604051611b679190612581565b60405180910390a3505050505050505050565b828054611b86906129ff565b90600052602060002090601f016020900481019282611ba85760008555611bef565b82601f10611bc157805160ff1916838001178555611bef565b82800160010185558215611bef579182015b82811115611bee578251825591602001919060010190611bd3565b5b509050611bfc9190611c00565b5090565b5b80821115611c19576000816000905550600101611c01565b5090565b6000611c30611c2b84612656565b612631565b90508083825260208201905082856020860282011115611c5357611c52612c00565b5b60005b85811015611c835781611c698882611d96565b845260208401935060208301925050600181019050611c56565b5050509392505050565b6000611ca0611c9b84612682565b612631565b905082815260208101848484011115611cbc57611cbb612c05565b5b611cc78482856129bd565b509392505050565b600082601f830112611ce457611ce3612bfb565b5b8135611cf4848260208601611c1d565b91505092915050565b600081359050611d0c81612c3c565b92915050565b60008083601f840112611d2857611d27612bfb565b5b8235905067ffffffffffffffff811115611d4557611d44612bf6565b5b602083019150836001820283011115611d6157611d60612c00565b5b9250929050565b600082601f830112611d7d57611d7c612bfb565b5b8135611d8d848260208601611c8d565b91505092915050565b600081359050611da581612c53565b92915050565b600081519050611dba81612c53565b92915050565b600081359050611dcf81612c6a565b92915050565b600081519050611de481612c6a565b92915050565b600080600080600060a08688031215611e0657611e05612c0f565b5b6000611e1488828901611cfd565b9550506020611e2588828901611d96565b9450506040611e3688828901611d96565b9350506060611e4788828901611dc0565b925050608086013567ffffffffffffffff811115611e6857611e67612c0a565b5b611e7488828901611d68565b9150509295509295909350565b60008060208385031215611e9857611e97612c0f565b5b600083013567ffffffffffffffff811115611eb657611eb5612c0a565b5b611ec285828601611d12565b92509250509250929050565b600060208284031215611ee457611ee3612c0f565b5b600082013567ffffffffffffffff811115611f0257611f01612c0a565b5b611f0e84828501611d68565b91505092915050565b600060208284031215611f2d57611f2c612c0f565b5b6000611f3b84828501611d96565b91505092915050565b600060208284031215611f5a57611f59612c0f565b5b6000611f6884828501611dab565b91505092915050565b60008060408385031215611f8857611f87612c0f565b5b6000611f9685828601611d96565b925050602083013567ffffffffffffffff811115611fb757611fb6612c0a565b5b611fc385828601611ccf565b9150509250929050565b60008060408385031215611fe457611fe3612c0f565b5b6000611ff285828601611d96565b925050602083013567ffffffffffffffff81111561201357612012612c0a565b5b61201f85828601611d68565b9150509250929050565b600080604083850312156120405761203f612c0f565b5b600061204e85828601611d96565b925050602061205f85828601611d96565b9150509250929050565b60006020828403121561207f5761207e612c0f565b5b600061208d84828501611dd5565b91505092915050565b60006120a283836120c6565b60208301905092915050565b60006120ba8383612311565b60208301905092915050565b6120cf816128bf565b82525050565b6120de816128bf565b82525050565b6120ed816128ad565b82525050565b60006120fe826126e8565b6121088185612723565b9350612113836126b3565b8060005b8381101561214457815161212b8882612096565b975061213683612709565b925050600181019050612117565b5085935050505092915050565b600061215c826126f3565b6121668185612734565b9350612171836126c3565b8060005b838110156121a257815161218988826120ae565b975061219483612716565b925050600181019050612175565b5085935050505092915050565b6121b8816128d1565b82525050565b6121c7816128dd565b82525050565b60006121d8826126fe565b6121e28185612745565b93506121f28185602086016129cc565b6121fb81612c14565b840191505092915050565b60008154612213816129ff565b61221d8186612756565b9450600182166000811461223857600181146122495761227c565b60ff1983168652818601935061227c565b612252856126d3565b60005b8381101561227457815481890152600182019150602081019050612255565b838801955050505b50505092915050565b61228e81612963565b82525050565b61229d81612975565b82525050565b60006122b0600083612756565b91506122bb82612c25565b600082019050919050565b6122cf816128fa565b82525050565b6122de81612928565b82525050565b6122ed81612932565b82525050565b6122fc81612942565b82525050565b61230b816129ab565b82525050565b61231a81612956565b82525050565b61232981612956565b82525050565b600061233b8284612206565b915081905092915050565b6000612351826122a3565b9150819050919050565b600060208201905061237060008301846120e4565b92915050565b600060208201905061238b60008301846120d5565b92915050565b60006040820190506123a660008301856120e4565b6123b360208301846120e4565b9392505050565b600060208201905081810360008301526123d481846120f3565b905092915050565b600060208201905081810360008301526123f68184612151565b905092915050565b600060408201905061241360008301856121af565b818103602083015261242581846121cd565b90509392505050565b600060208201905061244360008301846121be565b92915050565b60006101208201905061245f600083018c6121be565b61246c602083018b6122d5565b612479604083018a6122d5565b818103606083015261248b81896121cd565b905061249a6080830188612320565b6124a760a08301876120d5565b6124b460c0830186612294565b6124c160e08301856122d5565b6124cf6101008301846120d5565b9a9950505050505050505050565b600060a0820190506124f260008301886121be565b6124ff60208301876122f3565b61250c60408301866122c6565b61251960608301856122e4565b61252660808301846122e4565b9695505050505050565b60006020820190506125456000830184612285565b92915050565b60006020820190506125606000830184612294565b92915050565b600060208201905061257b60008301846122c6565b92915050565b600060208201905061259660008301846122d5565b92915050565b60006040820190506125b160008301856122d5565b6125be60208301846122d5565b9392505050565b60006020820190506125da60008301846122e4565b92915050565b60006020820190506125f560008301846122f3565b92915050565b60006020820190506126106000830184612302565b92915050565b600060208201905061262b6000830184612320565b92915050565b600061263b61264c565b90506126478282612a31565b919050565b6000604051905090565b600067ffffffffffffffff82111561267157612670612bc7565b5b602082029050602081019050919050565b600067ffffffffffffffff82111561269d5761269c612bc7565b5b6126a682612c14565b9050602081019050919050565b6000819050602082019050919050565b6000819050602082019050919050565b60008190508160005260206000209050919050565b600081519050919050565b600081519050919050565b600081519050919050565b6000602082019050919050565b6000602082019050919050565b600082825260208201905092915050565b600082825260208201905092915050565b600082825260208201905092915050565b600081905092915050565b600061276c82612928565b915061277783612928565b9250827fffffffffffffffffffffffffffffffffffffffffffffffffffffffffffffffff038211156127ac576127ab612adc565b5b828201905092915050565b60006127c282612956565b91506127cd83612956565b92508260ff038211156127e3576127e2612adc565b5b828201905092915050565b60006127f982612928565b915061280483612928565b92508261281457612813612b0b565b5b828204905092915050565b600061282a82612928565b915061283583612928565b9250817fffffffffffffffffffffffffffffffffffffffffffffffffffffffffffffffff048311821515161561286e5761286d612adc565b5b828202905092915050565b600061288482612928565b915061288f83612928565b9250828210156128a2576128a1612adc565b5b828203905092915050565b60006128b882612908565b9050919050565b60006128ca82612908565b9050919050565b60008115159050919050565b6000819050919050565b60008190506128f582612c28565b919050565b600061ffff82169050919050565b600073ffffffffffffffffffffffffffffffffffffffff82169050919050565b6000819050919050565b600063ffffffff82169050919050565b600067ffffffffffffffff82169050919050565b600060ff82169050919050565b600061296e82612987565b9050919050565b6000612980826128e7565b9050919050565b600061299282612999565b9050919050565b60006129a482612908565b9050919050565b60006129b682612956565b9050919050565b82818337600083830152505050565b60005b838110156129ea5780820151818401526020810190506129cf565b838111156129f9576000848401525b50505050565b60006002820490506001821680612a1757607f821691505b60208210811415612a2b57612a2a612b69565b5b50919050565b612a3a82612c14565b810181811067ffffffffffffffff82111715612a5957612a58612bc7565b5b80604052505050565b6000612a6d82612928565b91507fffffffffffffffffffffffffffffffffffffffffffffffffffffffffffffffff821415612aa057612a9f612adc565b5b600182019050919050565b6000612ab682612928565b9150612ac183612928565b925082612ad157612ad0612b0b565b5b828206905092915050565b7f4e487b7100000000000000000000000000000000000000000000000000000000600052601160045260246000fd5b7f4e487b7100000000000000000000000000000000000000000000000000000000600052601260045260246000fd5b7f4e487b7100000000000000000000000000000000000000000000000000000000600052602160045260246000fd5b7f4e487b7100000000000000000000000000000000000000000000000000000000600052602260045260246000fd5b7f4e487b7100000000000000000000000000000000000000000000000000000000600052603260045260246000fd5b7f4e487b7100000000000000000000000000000000000000000000000000000000600052604160045260246000fd5b600080fd5b600080fd5b600080fd5b600080fd5b600080fd5b600080fd5b6000601f19601f8301169050919050565b50565b60038110612c3957612c38612b3a565b5b50565b612c45816128dd565b8114612c5057600080fd5b50565b612c5c81612928565b8114612c6757600080fd5b50565b612c7381612956565b8114612c7e57600080fd5b5056fea26469706673582212207445bd417b4a5d9a6347e3ffb535ffaf04a1b4a3b964950115ca723b3bdfb61664736f6c63430008070033",
    "linkReferences": {},
    "deployedLinkReferences": {}
}